:10000000D1C00000EBC00000E9C00000E3C6000062
:10001000E5C00000E3C00000E1C00000DFC0000058
:10002000DDC00000DBC000000C94DC0CD7C0000079
:10003000D5C00000D3C00000D1C00000CFC0000078
:10004000CDC0000096C60000C9C00000C7C00000B7
:10005000C5C000006EC30000C1C00000BFC00000EA
:10006000BDC00000BBC00000B9C00000B7C00000A8
:10007000B5C00000B3C00000B1C00000AFC00000B8
:10008000ADC00000ABC00000A9C00000A7C00000C8
:10009000A5C00000A3C00000A1C000009FC00000D8
:1000A0009DC000009BC0000099C00000120110011B
:1000B00002000008EB034B200000010200010902CE
:1000C0004300020100C032090400000102020100E5
:1000D000052400011005240103010424020605245F
:1000E000060001070582030800FF09040100020A57
:1000F000000000070504022000000705830220001D
:10010000000403090418036200750073007700619E
:1001100000720065002E006400650000002A034E96
:10012000004800430055004C0038003600380000FD
:10013000002A034E004800430055004C00340033B1
:10014000003300000027675081C20D2E2D07D39188
:100150003D0432000006002165E855E43023B90073
:10016000073018146C040091876BF85617E92A00C1
:100170001F4100202F2000203D20005620302E312E
:1001800031204E4843554C383638005620302E31F9
:1001900031204E4843554C34333300202F2000206B
:1001A0003D20000011241FBECFEFDAE0DEBFCDBF3F
:1001B00011E0A0E0B1E0E0E1FCE102C005900D92A9
:1001C000AE34B107D9F712E0AEE4B1E001C01D9240
:1001D000A33BB107E1F70CD00C94060E11CFF894B5
:1001E00081E085BF82E085BFE0E0F8E309950895EE
:1001F0001F93CF93DF932E9A0E949E09B0D404B62A
:1002000003FE0CC083E390E00E94F00D882331F0E0
:1002100083E390E060E00E94F80DE1DF89EF87BDA5
:1002200014E015BD82E084BD80936E0010928000C2
:100230008AE08093810090E080E80FB6F894809384
:100240006100909361000FBE84B7877F84BF2FE069
:1002500088E190E00FB6F894A895809360000FBEF7
:10026000209360006E9A809147019091480160E26E
:10027000D0D48091490190914A0160E2CAD4109390
:10028000AB020E94400A0E944A094CD176988AEF3C
:1002900090E09093A9028093A80281E08093A70246
:1002A0001093AB02C0E0D1E007C08A81882319F027
:1002B000E881F9810995249681E0C031D807A9F732
:1002C0006097FACF8CEB9CE061E00C94AE098CEB6C
:1002D0009CE060E00E94AE0985EF92E060E00E9441
:1002E000AE0986E364C0CF93DF93DA01E901292FD9
:1002F00033272230310539F02330310549F02130E0
:10030000310549F532C02EEB30E083E490E025C0A2
:1003100090708130910551F08130910518F002976D
:10032000D1F40AC0E1E0F1E0849103C0E5E0F1E03E
:10033000849190E09F0111C01E9B03C02DE131E02C
:1003400002C021E331E0EDE1F1E0E4918E2F90E095
:100350002115310511F480E005C02D933C9399835C
:10036000888381E0DF91CF9108952CEA30E082E12B
:1003700090E0F3CF289880688EBD0DB407FEFDCFC6
:100380008EB51EBC0DB407FEFDCF8EB5289A08951C
:1003900028988EBD0DB407FEFDCF8EB56EBD0DB491
:1003A00007FEFDCF8EB5289A0895806CE3CF28987C
:1003B0008EBD0DB407FEFDCF8EB5289A08951F930C
:1003C0001FEF04C084E3F3DF112331F085E3EDDF99
:1003D00011508F718D30B1F7E29AEA9A1F9108950A
:1003E000A1E0B0E0E6EFF1E00C94C70D0196BE018C
:1003F0006F5F7F4F41E0F2D2892B09F432C08981CF
:100400008336A9F42FD200E010E0802FCEDF90E0F9
:1004100062E040E363D2C80187709070079709F4E7
:1004200040D20F5F1F4F0932110579F719C0BDDFA8
:10043000182F83E417D2898190E062E040E34ED226
:1004400087E791E032D2812F90E062E040E346D22C
:1004500083E791E02AD2812F90E062E040E27BD2F4
:1004600020D22196E4E00C94E30D1F93EA981FEF4D
:1004700007C085E39CDF8AE090E0E5D1112331F0ED
:1004800085E393DF11508F71833199F71F910895A0
:100490001F93CF93DF93E82F8B3010F0E8E002C07A
:1004A000863008F0E5508BE290E0F0E0EB5BFE4F29
:1004B0001491EC012196CD3211F060E001C0612F62
:1004C00009D3C333D10511F0CE01F3CF84E290E01C
:1004D00061E100D3DF91CF911F910895CF93DF9316
:1004E00082E090E0EC012196FE01E95BFE4FE49191
:1004F0006E2FF0D2CB32D10511F0CE01F3CF1E9981
:100500000CC08FE090E060E1E5D280E190E060EB2C
:10051000E1D281E190E061E7DDD288E0B9DFDF91EF
:10052000CF9108950F931F93CF93DF93209A289A2A
:100530008EE190E088D128988EE190E084D1289ACD
:100540008DE290E080D180E332DF84E690E07BD1E1
:10055000289880E48EBD0DB407FEFDCF8EB582E0F5
:1005600090E0EC01219674D28EBD0DB407FEFDCF54
:100570008EB5CB32D10511F0CE01F3CF289A289851
:100580008EE78EBD0DB407FEFDCF8EB58E010F5FD9
:100590001F4FCE015DD28EBD0DB407FEFDCF8EB5CF
:1005A0000333110511F0E801F1CF289A83E3FFDE50
:1005B00081E090E04DD1DF91CF911F910F9108958F
:1005C000A1E0B0E0E6EEF2E00C94C90D22E0298350
:1005D0000196BE016F5F7F4F41E000D2898158DFF5
:1005E000A1DF2196E2E00C94E50D8091B202882310
:1005F00009F452C084E08093E90080914F01882380
:10060000F9F48091E80085FD06C01AC06091F10000
:1006100088E592E004D38091F2009091F300892B59
:10062000A9F78091E8008F778093E80081E08093BC
:100630004F01E0917C02F0917D02099510924F01EB
:1006400083E08093E90080918102882329F18091E1
:10065000E80085FF21C0F89405C08EE792E0FAD249
:100660008093F10080918102882331F08091F20023
:100670009091F300809788F378948091F2009091A4
:10068000F300809721F080914E01882329F4809116
:10069000E8008F778093E8000895813229F0823254
:1006A00029F1803279F510C0613A61F58091E80056
:1006B000877F8093E80080E491E067E070E025D7D1
:1006C0008091E8008B7F0FC06132E1F48091E800F7
:1006D000877F8093E80080E491E067E070E05FD777
:1006E0008091E8008E7F8093E8000895613251F494
:1006F0008091E800877F8093E8008091E8008E7FFA
:100700008093E800089582E068E070E041EC20E02A
:10071000CBD683E060E270E041E824E0C5D684E017
:1007200060E270E040E824E0BFD685EF92E061E04F
:1007300015C61F920F920FB60F9211248F938091BE
:10074000A4028F5F8093A4028D3710F18091A502DF
:100750008F5F8093A5021092A4028C33C9F480911C
:10076000A2028F5F8093A2021092A5028C3381F4C3
:100770008091A3028F5F8093A3021092A20288311E
:1007800039F48091A6028F5F8093A6021092A30293
:100790008F910F900FBE0F901F9018959091A4020B
:1007A00080915001891779F1909350019091A502A1
:1007B00080915101891739F190935101A895809149
:1007C0004B0181FF04C08EB190E489278EB98091DE
:1007D000A8029091A90221E0843F920728F4019693
:1007E0009093A9028093A8029091A2028091520155
:1007F000891749F0909352018091B202882319F42D
:1008000080E090E06AC108958091A60290E063E0E4
:1008100040E3A1D080E226D08091A30290E062E084
:1008200040E399D08AE31ED08091A20290E062E07A
:1008300040E391D08AE316D08091A50290E062E077
:1008400040E389D02EC0880F991F0197F1F70895D2
:1008500020ED37E004C0F9013197F1F701970097D7
:10086000D1F708951F93CF93DF93182F8091B20291
:10087000882399F08091A70280FF0FC0C0914701A3
:10088000D09148019B818881981708F0AEDECE0197
:10089000612FC5D11A3009F4A8DEDF91CF911F91E5
:1008A00008958DE0DFDF8AE0DDCFCF93DF93EC01A9
:1008B00002C0D8DF2196FE0184918823D1F7DF9111
:1008C000CF910895CF93DF93EC0102C02196CADF48
:1008D00088818823D9F7DF91CF910895A5E0B0E012
:1008E000E4E7F4E00C94C90D1D82FE01349624E087
:1008F000582F5F7021505A3018F4352F305D02C0E8
:10090000352F395C308334E0969587953A95E1F739
:1009100061503197009761F72150822F992787FD09
:1009200090952F5FFE013196E80FF91F03C021500B
:1009300040833197615067FD02C01216C4F333271C
:1009400027FD3095CE010196820F931FBBDF2596C0
:10095000E2E00C94E50DA6E0B0E0E1EBF4E00C94ED
:10096000C70D9C01162F042F1E82FE01359645E00F
:100970004150C9016AE070E00E94A50D805D80834E
:10098000C9016AE070E00E94A50D9B01115061153C
:10099000710559F44150842F992787FD90954F5F39
:1009A000FE013196E80FF91F07C03197442301F784
:1009B000F1CF415000833197115017FD02C014163A
:1009C000C4F3242F332727FD3095CE010196820FE3
:1009D000931F78DF2696E4E00C94E30DDC01FB0125
:1009E00021C0822F80538A3010F050E002C0382B93
:1009F00051E0822F8154863020F42753322B295C1A
:100A000051E0822F8156863018F42755322B05C0CD
:100A1000552319F4203261F00EC0992331F031933F
:100A2000415049F090E030E003C03295307F91E0D2
:100A30002D912223B1F6CF01861B970B08951E99A5
:100A400003C08BE891E002C08BE791E02EDF29CF55
:100A50000C94F00D0895EF92FF921F93DF93CF93C4
:100A600000D0CDB7DEB71B8219820196BE016F5F41
:100A70007F4F42E0B3DF2981823041F4922F80E042
:100A80002A81E22EFF24E82AF92A02C0E22EFF245E
:100A9000C701DEDF182F82E5E5DEC70164E040E331
:100AA0001DDF8FE991E001DF812F90E062E040E3FC
:100AB00015DF8BE991E0F9DE812F90E062E040E202
:100AC0004ADFEFDE0F900F90CF91DF911F91FF90E3
:100AD000EF9008950C94F80D0895A1E0B0E0E3E7DD
:100AE000F5E00C94C90D1982009731F00196BE0112
:100AF0006F5F7F4F41E072DFA9D48981882321F0A5
:100B000083E390E061E0E6DF10926E00FFCF019694
:100B10006BE471E041E062DF60914B0160FF02C075
:100B2000769A01C0769884E390E0D4CF0F931F9318
:100B30008C01D4DC80E090E060E0CCDF81E090E0EC
:100B40006BE0C8DF83E390E060E0C4DF84E390E023
:100B500062E0C0DFC801C1DF1F910F91089580E0FE
:100B600090E076DF882329F481E090E071DF8B301C
:100B700019F080E090E0DADF84E390E069DF8093B1
:100B80004B010895A3E0B0E0E7ECF5E0FCC76C0191
:100B90000196BE016F5F7F4F43E020DF082F823058
:100BA000A8F12981823019F4E22EFF2407C0922F88
:100BB00080E02A81E22EFF24E82AF92A10E0FE01D3
:100BC000E00FF11FC701608185DF000F111F0F5F6C
:100BD0001F4F0C0D1D1D0894E11CF11C6E010894A3
:100BE000C11CD11C0FC0C801B60141E0F7DE892B42
:100BF00069F0C70169816EDF0E5F1F4F82E090E0F0
:100C0000E80EF91EF8018081882369F72396E8E051
:100C1000D6C7FC0160831382118212820895DC0121
:100C200013968C9113979C91891798F48F5F139664
:100C30008C93139711968C911197FD01E80FF11D7C
:100C400064838F5F11968C931197891711F4119615
:100C50001C920895DC0113968C911397882311F44C
:100C600020E014C0815013968C93139712968C91A8
:100C70001297FD01E80FF11D24818F5F12968C936E
:100C800012979C91891711F412961C92822F089545
:100C9000539A5B985298EAE6F0E080818061808305
:100CA00010925D010895AC012091590130915A01D3
:100CB000BC0184E0769567958A95E1F78FE0413E27
:100CC0005807C8F0F901E259FE4F8FEF8083C90140
:100CD0000196FC01E259FE4F252F22952F702083AB
:100CE0000196FC01E259FE4F6083019690935A01F0
:100CF000809359010895F901E259FE4F60832F5FF7
:100D00003F4F30935A0120935901089520915B0180
:100D100030915C01F901E259FE4F80818F3F19F05B
:100D200040E050E00FC0C9010196FC01E259FE4FBE
:100D30002081522F5295507F40E0019690935C01A4
:100D400080935B0180915B0190915C01FC01E25911
:100D5000FE4F208130E064E0220F331F6A95E1F7F7
:100D6000240F351F019690935C0180935B01C901AC
:100D700008951F920F920FB60F9211242F938F9305
:100D80009F93EF93FF9310926F00909156019F5F96
:100D9000292F2770915080915701281709F4292F86
:100DA000E22FF0E0EE0FFF1FE25AFE4F80E395E7DF
:100DB00091838083209356011092550110924E0129
:100DC000FF91EF919F918F912F910F900FBE0F90F8
:100DD0001F9018951F920F920FB60F9211242F9308
:100DE0003F938F939F93EF93FF9380918400909113
:100DF00085009093540180935301109285001092C6
:100E0000840080915501813051F5209156012F5F6A
:100E1000322F3770215080915701381739F48FEFF6
:100E20009FE79093540180935301322F4A9909C050
:100E30008091530190915401906890935401809354
:100E40005301E32FF0E0EE0FFF1FE25AFE4F8091B7
:100E5000530190915401918380833093560181E036
:100E60008093550180934E01FF91EF919F918F9157
:100E70003F912F910F900FBE0F901F90189552DB4E
:100E800081E080935D019BCA86E391DA89E38FDA82
:100E900010925D010895FCDE8091AA02882311F072
:100EA000EEDF01C0F1DF8091AA02833009F4EA98F5
:100EB000089510925A01109259018FE6D3DC809167
:100EC000590190915A0164E040E308CDE091570147
:100ED00080915601E81709F43AC0EF5FE770E0939C
:100EE0005701F0E0EE0FFF1FE25AFE4F8081918123
:100EF00097FF0DC08DE6B6DC80E395E790938900FF
:100F00008093880082E080936F0086BB02C083E7F5
:100F1000A9DC10925801E0915701F0E0EE0FFF1F9D
:100F2000E25AFE4F818190E08F77907062E040E35B
:100F3000D5DCE0915701F0E0EE0FFF1FE25AFE4FC3
:100F400080819181907062E040E3C8DCAACC089572
:100F5000A1E0B0E0EDEAF7E016C66C01809159011E
:100F600090915A01883C910518F085E67BDC31C0F0
:100F7000C60101967E010894E11CF11CB70141E015
:100F80002DDD198100E0C6010396B70141E026DDA1
:100F900089819801280F311DC90185DEC60105969A
:100FA000B70141E01BDD198100E0C6010796B701DA
:100FB00041E014DD89819801280F311DC90173DEDC
:100FC0008FE650DC8091590190915A0164E040E332
:100FD00085DC67DC2196E8E0F2C5FC01818188238D
:100FE00039F48091AA0290E062E040E377DC59CCCA
:100FF000CF0101966AEA72E041E0F0DC4CCFA2E05A
:10100000B0E0E4E0F8E0C3C58C0119820196BE01AE
:101010006F5F7F4F41E0E2DCC8010396BE016E5F67
:101020007F4F41E0DBDC89816A81B2D98FE61ADC2F
:101030002296E4E0C8C5A1E0B0E0E0E2F8E0A8C58F
:1010400019820196BE016F5F7F4F41E0C7DC898145
:1010500091D9182F8FE606DC812F90E062E040E303
:101060003DDC2196E3E0B0C5A4E0B0E0E9E3F8E0C0
:1010700089C58C01198210925C0110925B011A8261
:101080001B821C820196BE016F5F7F4F41E0A6DC90
:10109000F80183818823C9F0C8010396BE016E5F01
:1010A0007F4F41E09BDCC8010596BE016D5F7F4F1D
:1010B00041E094DCF8018781882339F0C801079664
:1010C000BE016C5F7F4F41E089DC769A1E990CC0AF
:1010D0008FE090E060E1FEDC80E190E060EBFADC24
:1010E00081E190E061E70BC08FE090E061E2F2DC2B
:1010F00080E190E065E6EEDC81E190E068EEEADC1C
:1011000080915D01882329F4C3DD0CDA81E08093AE
:101110005D0186E34CD981E090E09ADBA6D98A8113
:10112000882321F420E030E0DD247AC020E030E0A4
:10113000BB244BC030935C0120935B01CC24DD24A5
:1011400037C0BB2029F48C8190E0C816D90609F07D
:1011500079011092850010928400D8DD9C015A819B
:101160004B8108C05B9A852F8A95F1F75B98842F95
:101170008A95F1F7809184009091850082179307FA
:1011800088F310928500109284005B98BFDD8C017B
:1011900003C082E090E057DB80918400909185004D
:1011A00080179107B0F382E090E0C80ED91E970136
:1011B000E0905B01F0905C018091590190915A019F
:1011C000E816F90608F4BDCFB3948981B81608F47F
:1011D000B1CF29C030935C0120935B01EE24FF2442
:1011E00013C0DD2029F48C8190E0E816F90609F09F
:1011F00089015B9A8BDD27DB5B9888DD24DBE2E0ED
:10120000F0E0EE0EFF1E980100915B0110915C0171
:101210008091590190915A010817190710F3D3943E
:101220008981D816B8F28091AA02882339F0C7D8EC
:101230008091AA02833021F4EA9802C086E3B7D8ED
:1012400076988FE60FDB80915B0190915C0164E002
:1012500040E344DB26DB2496E9E0B0C4DC0120E077
:101260000BC08C91891739F40180F281E02DCD01FA
:10127000099581E008952F5F822F90E0FC01EE0F29
:10128000FF1FE80FF91FE05FFE4F9081992349F798
:1012900080E0089581E599E090937D0280937C023F
:1012A0000895EF92FF921F93CF93DF93E09049014F
:1012B000F0904A0138C0C701CDDC8A3011F08D3082
:1012C00031F5E0913602EE2371F1F0E0E95CFD4F7B
:1012D000108287E392E0C2DF8823B1F48FE3C2DAA1
:1012E00010E005C080E2BEDA8881BCDA1F5F812F82
:1012F00090E0EC01CC0FDD1FC80FD91FC05FDE4F9F
:101300008881882379F7CDDA109236020CC090914B
:101310003602903240F4E92FF0E0E95CFD4F808323
:101320009F5F90933602F7018381882309F0C3CF32
:10133000DF91CF911F91FF90EF900895E4E6F0E0E8
:1013400080818B7F8083299A84B1876084B92398B8
:1013500080E58CBD8DB581608DBD08959C01E0E078
:10136000F1E008C0808191818217930711F46283B4
:10137000089534968091AB0290E0880F991F880FF2
:10138000991F80509F4FE817F90761F70895A4E06F
:10139000B0E0ECECF9E0FDC302D309D31092B20245
:1013A0001092B0021092AF021092AE028AE482BF95
:1013B00019BC89B5826089BD09B400FEFDCF80915A
:1013C000D800982F9F779093D80080688093D8009A
:1013D0008091D80081608093D8008091D70081608F
:1013E0008093D7008091D8008F7D8093D800809122
:1013F000E0008B7F8093E0008091D8008160809333
:10140000D80080E091E060E0AE014F5F5F4F9E0149
:101410002D5F3F4F0E947301882331F0E981FA81EB
:101420003796E491E0934C018091E0008E7F8093A9
:10143000E0008091E20081608093E2008091E20010
:1014400088608093E2002496E2E0BFC38091B202FC
:10145000882311F00E946701A2D2A9D21092B20291
:101460001092B1021092B0028091D8008F778093D1
:10147000D80019BC8091D8008F7E8093D800089541
:101480008091B102882309F0E1DF81E08093B1020D
:101490008091D80080618093D8008091D8008160CD
:1014A0008093D800789408958093E9008091EB00B0
:1014B00081608093EB004093EC009091ED00777099
:1014C0006930710510F480E015C06131710510F4C8
:1014D00080E110C06132710510F480E20BC061340C
:1014E000710510F480E306C06138710510F080E5E5
:1014F00001C080E49270922B892B8093ED00809143
:10150000ED0082608093ED000895CF93DF939C01FE
:10151000FB0180914C01C82FD0E0CB01BE0115D357
:10152000892B21F040E050E0309711F441E050E089
:10153000D90116C08091E80080FFFCCF05C08D91D5
:101540008093F100319739F08091F2009091F3008F
:101550008C179D07A0F38091E8008E7F8093E800B0
:10156000309721F08091E80082FFE4CF8091E8007D
:1015700082FF02C081E010C0452B49F08091E80055
:1015800080FFFCCF8091E8008E7F8093E8008091FF
:10159000E80082FFFCCF80E0DF91CF910895FC014D
:1015A00016C08091E80082FFFCCF06C08091F10058
:1015B00081936150704031F08091F2009091F3007E
:1015C000892BA1F78091E8008B7F8093E80061155B
:1015D000710539F78091E80080FFFCCF80E0089525
:1015E000A8E0B0E0E5EFFAE0D1C26091F1004091EF
:1015F000F100453009F4CCC0463048F4413009F4DC
:1016000075C0413070F0433009F0A2C16FC048305E
:1016100009F44EC1493009F466C1463009F098C159
:10162000D7C0262F30E0C901807E907080389105A8
:1016300009F08EC1C9018F7190708330910509F452
:1016400087C12091F1002091F1002091F10040919B
:10165000F1008130910531F08230910501F1892B43
:1016600021F079C120E030E02EC08091B00290E0FE
:10167000926060E0AE014F5F5F4F9E01295F3F4F78
:101680000E947301882309F466C18091AE02282F5D
:1016900030E08091AF028823B1F0226014C0942F13
:1016A00080E030E0822B932B8093E9008091EB0067
:1016B000282F30E085E0369527958A95E1F721704F
:1016C00030701092E9008091E800877F8093E800F5
:1016D0002093F1003093F1008091E8008E7F809399
:1016E000E8008091E80082FFFCCFF7C0262F30E0B1
:1016F000862F807E09F02CC1C9018F7190708330D4
:10170000910509F425C12091F1005091F1007091EB
:10171000F1006091F100029709F01DC1952F80E062
:1017200030E0822B932B892B09F015C180E0272F05
:10173000282B277009F40FC12093E9008091EB005A
:1017400080FF1BC04130A1F48091EB008061809349
:10175000EB0081E090E002C0880F991F2A95E2F724
:101760008093EA001092EA008091EB00886003C049
:101770008091EB0080628093EB001092E9008091F1
:10178000E800877F8093E8008091E8008E7FA8C002
:10179000662309F0DDC09091F1008091E3009F770E
:1017A0008078982B9093E3008091E800877F809366
:1017B000E8008091E8008E7F8093E8008091E80047
:1017C00080FFFCCF8091E30080688093E300C3C07A
:1017D0004091F1006091F1002091F100E091F10061
:1017E0000091F1001091F100962F80E050E07E2FE3
:1017F00060E030E0622B732B842B952BAE014D5FA4
:101800005F4F9E01295F3F4F0E947301882309F4B7
:10181000A2C08091E800877F8093E800912F80E04C
:10182000402F50E02F813885482B592B241735073E
:1018300008F4A90180914C01682F70E0AB81BC8154
:101840009A0119C08091E80080FFFCCF08C0FD011B
:101850001196E491E093F1002150304039F08091ED
:10186000F2009091F3008617970788F38091E800C3
:101870008E7F8093E8002115310521F08091E800EA
:1018800082FFE0CF8091E80082FD27C0CA015DD1D0
:10189000892B49F48091E80080FFFCCF8091E8001B
:1018A0008E7F8093E8008091E80082FFFCCF15C016
:1018B000603809F04DC08091E800877F8093E80090
:1018C0008091B0028093F1008091E8008E7F809338
:1018D000E8008091E80082FFFCCF8091E8008B7FD8
:1018E0008093E80038C0662399F50091F1001091CB
:1018F000F100F090B00280E091E0AE014B5F5F4FED
:101900009E01295F3F4F0E947301882321F1912F8F
:1019100080E0202F30E0282B392BED81FE8171965D
:10192000E4918E2F90E082179307A8F08091E80051
:10193000877F8093E8002093B0028091E8008E7F3B
:101940008093E800FF2009F4FFD00E94830303C0C6
:10195000842F0E944D038091E80083FF0AC080918C
:10196000EB0080628093EB008091E800877F80939A
:10197000E8002896E5E026C11F938091B2028823F3
:1019800061F01091E9001092E9008091E80083FF76
:1019900001C026DE17701093E9001F910895E8ED4D
:1019A000F0E080818E7F80831092E2000895109293
:1019B000DA001092E10008951F920F920FB60F9275
:1019C00011242F933F934F935F936F937F938F9344
:1019D0009F93AF93BF93EF93FF938091DA0080FFC3
:1019E0003AC08091D80080FF36C08091DA008E7FA7
:1019F0008093DA00A9D08091D90080FF12C0A4D0D2
:101A00008091B102882339F18091B202882311F0CC
:101A10000E946701BCDC81E08093B2020E946201F7
:101A20001AC00E9467018091E00081608093E0000D
:101A30008091D80080628093D80019BC8091D70033
:101A40008E7F8093D70080D08091DA008E7F809344
:101A5000DA001092B2028091E10080FF1AC08091FA
:101A6000E20080FF16C08091E1008E7F8093E1004C
:101A70008091E2008E7F8093E2008091E20080619D
:101A80008093E2008091D80080628093D80019BCD6
:101A90005BD08091E10084FF20C08091E20084FF50
:101AA0001CC019BC89B5826089BD09B400FEFDCF98
:101AB0008091D8008F7D8093D8008091E1008F7E47
:101AC0008093E1008091E2008F7E8093E20080911C
:101AD000E20081608093E20037D08091E10083FFD3
:101AE00022C08091E20083FF1EC08091E100877FC9
:101AF0008093E1001092B0028091E1008E7F80938C
:101B0000E1008091E2008E7F8093E2008091E2000C
:101B100080618093E20060914C0180E070E040E0E1
:101B200020E0C2DC11D0FF91EF91BF91AF919F9166
:101B30008F917F916F915F914F913F912F910F9076
:101B40000FBE0F901F9018950895AA1BBB1B51E163
:101B500007C0AA1FBB1FA617B70710F0A61BB70B1D
:101B6000881F991F5A95A9F780959095BC01CD01C2
:101B700008952F923F924F925F926F927F928F9231
:101B80009F92AF92BF92CF92DF92EF92FF920F930C
:101B90001F93CF93DF93CDB7DEB7CA1BDB0B0FB616
:101BA000F894DEBF0FBECDBF09942A8839884888D3
:101BB0005F846E847D848C849B84AA84B984C88469
:101BC000DF80EE80FD800C811B81AA81B981CE0F60
:101BD000D11D0FB6F894DEBF0FBECDBFED01089545
:101BE000F999FECF92BD81BDF89A992780B50895E5
:101BF000262FF999FECF1FBA92BD81BD20BD0FB629
:101C0000F894FA9AF99A0FBE01960895F894FFCFC6
:101C1000BC0C0000F502000066070100CE030100C5
:101C200041A807426D0543F001455907491B084F7C
:101C3000FF07522B05533408561F0557C20558EDB0
:101C4000076596056C870574040478E002000000BF
:0E1C500000E803000000087E025802020800AF
:00000001FF
