:10000000B5C00000CFC00000CDC00000CBC00000D4
:10001000C9C00000E6C60000C5C00000C3C00000A3
:10002000C1C00000BFC00000BDC000000C94C20CE5
:10003000B9C00000B7C00000B5C00000A1C60000F4
:10004000B1C00000AFC00000ADC0000074C300002C
:10005000A9C00000A7C00000A5C00000A3C0000008
:10006000A1C000009FC000009DC000009BC0000018
:1000700099C000001201100102000008EB034B20A0
:1000800000000102000109024300020100C0320920
:1000900004000001020201000524000110052401F2
:1000A0000301042402060524060001070582030853
:1000B00000FF09040100020A0000000705040220F5
:1000C00000000705830220000004030904180362EE
:1000D000007500730077006100720065002E0064F7
:1000E00000650000002A034E004800430055004C04
:1000F0000038003600380000002A034E0048004354
:100100000055004C003400330033000000276750D6
:1001100081C20D2E2D07D3913D043200000600212F
:1001200065E855E43023B900073018146C040091D9
:10013000876BF85617E92A001F4100202F20002066
:100140003D20005620302E3131204E4843554C384A
:100150003638005620302E3131204E4843554C342D
:10016000333300202F2000203D20000011241FBE2B
:10017000CFEFD2E0DEBFCDBF11E0A0E0B1E0EAE614
:10018000FBE102C005900D92AE34B107D9F712E041
:10019000AEE4B1E001C01D92A33BB107E1F70CD082
:1001A0000C94B30D2DCFF89481E085BF82E085BF1C
:1001B000E0E0F8E1099508951F93CF93DF932E9A1D
:1001C0000E94C009E6D404B603FE18C0F999FECF18
:1001D00083E390E092BD81BDF89A80B5882371F0E9
:1001E000F999FECF1FBA83E390E092BD81BD10BCA8
:1001F0000FB6F894FA9AF99A0FBED5DF89EF87BD4A
:1002000014E015BD82E084BD80936E0010928000E2
:100210008AE08093810090E080E80FB6F8948093A4
:100220006100909361000FBE84B7877F84BF2FE089
:1002300088E190E00FB6F894A895809360000FBE17
:10024000209360003C9A809147019091480160E2C0
:10025000F2D48091490190914A0160E2ECD410936C
:10026000AB020E944C0A0E946A0958D144988AEF56
:1002700090E09093A9028093A80281E08093A70266
:100280001093AB02C0E0D1E007C08A81882319F047
:10029000E881F9810995249681E0C031D807A9F752
:1002A0006097FACF89EA9CE061E00C94D00989EA72
:1002B0009CE060E00E94D0098DEF92E060E00E9437
:1002C000D00986E37CC0CF93DF93DA01E901292FBF
:1002D00033272230310539F02330310549F0213000
:1002E000310549F532C026E830E083E490E025C0CE
:1002F00090708130910551F08130910518F002978E
:10030000D1F40AC0E9ECF0E0849103C0EDECF0E038
:10031000849190E09F0111C01E9B03C025EE30E048
:1003200002C029EF30E0E5EEF0E0E4918E2F90E09E
:100330002115310511F480E005C02D933C9399837C
:10034000888381E0DF91CF91089524E730E082E156
:1003500090E0F3CF459880688EBD0DB407FEFDCFC9
:100360008EB51EBC0DB407FEFDCF8EB5459A08951F
:1003700045988EBD0DB407FEFDCF8EB56EBD0DB494
:1003800007FEFDCF8EB5459A0895806CE3CF0F939D
:100390001F931FEF04E309C045980EBD0DB407FE7F
:1003A000FDCF8EB5459A115029F085E3EEDF8F71B0
:1003B0008D3091F7E49AEC9A1F910F91089545982A
:1003C0008EBD0DB407FEFDCF8EB5459A0895A1E010
:1003D000B0E0EDEEF1E00C948A0D0196BE016F5F86
:1003E0007F4F41E0FDD2892B09F432C089818336E9
:1003F000A9F43AD200E010E0802FC7DF90E062E07D
:1004000040E36ED2C80187709070079709F44BD211
:100410000F5F1F4F0932110579F719C0B6DF182F8A
:1004200083E422D2898190E062E040E359D28FE3F5
:1004300091E03DD2812F90E062E040E351D28BE326
:1004400091E035D2812F90E062E040E286D22BD25B
:100450002196E4E00C94A60D1F93EC981FEF0DC0BD
:10046000459885E38EBD0DB407FEFDCF8EB5459A48
:100470008AE090E0EAD1115029F085E386DF8F71A0
:10048000833171F71F9108951F93CF93DF93E82F66
:100490008B3010F0E8E002C0863008F0E5508BE2C7
:1004A00090E0F0E0E35FFE4F1491EC012196CD3235
:1004B00011F060E001C0612FC4D2C333D10511F047
:1004C000CE01F3CF84E290E061E1BBD2DF91CF9126
:1004D0001F910895CF93DF9382E090E0EC01219685
:1004E000FE01E15FFE4FE4916E2FABD2CB32D1051E
:1004F00011F0CE01F3CF1E990CC08FE090E060E1C7
:10050000A0D280E190E060EB9CD281E190E061E7D5
:1005100098D288E0B9DFDF91CF9108950F931F93B0
:10052000CF93DF933D9A459A8EE190E08ED1459826
:100530008EE190E08AD1459A8DE290E086D145988F
:1005400080E38EBD0DB407FEFDCF8EB5459A84E6DF
:1005500090E07BD1459880E48EBD0DB407FEFDCFC1
:100560008EB582E090E0EC01219678D28EBD0DB47C
:1005700007FEFDCF8EB5CB32D10511F0CE01F3CF02
:10058000459A45988EE78EBD0DB407FEFDCF8EB51A
:100590008E010F5F1F4FCE0161D28EBD0DB407FEDD
:1005A000FDCF8EB50333110511F0E801F1CF459A67
:1005B000459883E38EBD0DB407FEFDCF8EB5459AF9
:1005C00081E090E047D1DF91CF911F910F91089585
:1005D000A1E0B0E0EEEEF2E00C948C0D22E0298375
:1005E0000196BE016F5F7F4F41E0FAD189814CDFF8
:1005F00095DF2196E2E00C94A80D8091B202882349
:1006000009F44CC084E08093E90080914F01882375
:10061000E9F48091E80085FD06C018C06091F10002
:1006200088E592E00ED38091F2008823B9F780919B
:10063000E8008F778093E80081E080934F01E0919C
:100640007C02F0917D02099510924F0183E0809326
:10065000E90080918102882309F18091E80085FFFB
:100660001DC0F89405C08EE792E006D38093F10098
:1006700080918102882321F08091F200803298F3EA
:1006800078948091F200803221F080914E0188238D
:1006900029F48091E8008F778093E80008958132F3
:1006A00029F0823229F1803279F510C0613A61F582
:1006B0008091E800877F8093E80080E491E067E024
:1006C00070E01CD78091E8008B7F0FC06132E1F4AD
:1006D0008091E800877F8093E80080E491E067E004
:1006E00070E050D78091E8008E7F8093E8000895F5
:1006F000613251F48091E800877F8093E800809117
:10070000E8008E7F8093E800089582E068E070E062
:1007100041EC20E0CCD683E060E270E041E824E0E8
:10072000C6D684E060E270E040E824E0C0D68DEFF9
:1007300092E061E035C61F920F920FB60F9211241E
:100740008F938091A4028F5F8093A4028D3710F164
:100750008091A5028F5F8093A5021092A4028C3332
:10076000C9F48091A2028F5F8093A2021092A50229
:100770008C3381F48091A3028F5F8093A302109247
:10078000A202883139F48091A6028F5F8093A6027D
:100790001092A3028F910F900FBE0F901F9018958B
:1007A0009091A40280915001891779F190935001A2
:1007B0009091A50280915101891739F190935101CF
:1007C000A89580914B0181FF04C088B190E18927F1
:1007D00088B98091A8029091A90221E0843F9207F4
:1007E00028F401969093A9028093A8029091A20206
:1007F00080915201891749F0909352018091B20281
:10080000882319F480E090E092C108958091A602B7
:1008100090E063E040E3A1D080E226D08091A30283
:1008200090E062E040E399D08AE31ED08091A2027A
:1008300090E062E040E391D08AE316D08091A50277
:1008400090E062E040E389D02EC0880F991F0197A5
:10085000F1F7089520ED37E004C0F9013197F1F781
:1008600001970097D1F708951F93CF93DF93182F27
:100870008091B202882399F08091A70280FF0FC077
:10088000C0914701D09148019B818881981708F059
:10089000B4DECE01612FD5D11A3009F4AEDEDF917E
:1008A000CF911F9108958DE0DFDF8AE0DDCFCF93F8
:1008B000DF93EC0102C0D8DF2196FE0184918823EA
:1008C000D1F7DF91CF910895CF93DF93EC0102C070
:1008D0002196CADF88818823D9F7DF91CF910895C7
:1008E000A5E0B0E0E6E7F4E00C948C0D1D82FE017B
:1008F000349624E0582F5F7021505A3018F4352F69
:10090000305D02C0352F395C308334E09695879591
:100910003A95E1F761503197009761F72150822FA6
:10092000992787FD90952F5FFE013196E80FF91FFB
:1009300003C0215040833197615067FD02C01216F9
:10094000C4F3332727FD3095CE010196820F931F04
:10095000BBDF2596E2E00C94A80DA6E0B0E0E3EB47
:10096000F4E00C948A0D9C01162F042F1E82FE01C8
:10097000359645E04150C9016AE070E00E94680D7B
:10098000805D8083C9016AE070E00E94680D9B0170
:1009900011506115710559F44150842F992787FD35
:1009A00090954F5FFE013196E80FF91F07C0319710
:1009B000442301F7F1CF415000833197115017FDC7
:1009C00002C01416C4F3242F332727FD3095CE011F
:1009D0000196820F931F78DF2696E4E00C94A60D13
:1009E000DC01FB0121C0822F80538A3010F050E0DF
:1009F00002C0382B51E0822F8154863020F42753D7
:100A0000322B295C51E0822F8156863018F427550D
:100A1000322B05C0552319F4203261F00EC0992302
:100A200031F03193415049F030E090E003C032950D
:100A3000307F91E02D912223B1F6CF01861B970BD9
:100A400008959C01F999FECF1FBA32BD21BD60BD4A
:100A50000FB6F894FA9AF99A0FBE08959C01F99985
:100A6000FECF32BD21BDF89A80B508951E9903C00E
:100A700083E591E002C083E491E019DF14CF019691
:100A80006BE471E041E0ACDF60914B0160FF02C0BC
:100A9000449A01C0449884E390E0D3CFA3E0B0E04F
:100AA000E4E5F5E00C94860D6C010196BE016F5FE4
:100AB0007F4F43E095DF082F8230A8F129818230F3
:100AC00019F4E22EFF2407C0922F80E02A81E22E43
:100AD000FF24E82AF92A10E0FE01E00FF11FC70108
:100AE0006081AFDF000F111F0F5F1F4F0C0D1D1D29
:100AF0000894E11CF11C6E010894C11CD11C0FC0AC
:100B0000C801B60141E06CDF892B69F0C70169813A
:100B100098DF0E5F1F4F82E090E0E80EF91EF801AB
:100B20008081882369F72396E8E00C94A20DA1E068
:100B3000B0E0ECE9F5E0F0C71982009731F00196DA
:100B4000BE016F5F7F4F41E04BDF91D489818823E5
:100B500021F083E390E061E074DF10926E00FFCF3C
:100B60000F931F938C01B6DC80E090E060E069DFBA
:100B700081E090E06BE065DF83E390E060E061DFBF
:100B800084E390E062E05DDFC801D1DF1F910F9147
:100B9000089580E090E062DF882329F481E090E00E
:100BA0005DDF8B3019F080E090E0DADF84E390E0E5
:100BB00055DF80934B010895EF92FF921F93DF93CF
:100BC000CF9300D0CDB7DEB71B8219820196BE014C
:100BD0006F5F7F4F42E004DF2981823041F4922F22
:100BE00080E02A81E22EFF24E82AF92A02C0E22EC0
:100BF000FF24C70133DF182F82E536DEC70164E02A
:100C000040E36EDE87E691E052DE812F90E062E005
:100C100040E366DE83E691E04ADE812F90E062E009
:100C200040E29BDE40DE0F900F90CF91DF911F914D
:100C3000FF90EF900895FC0160831382118212826D
:100C40000895DC0113968C9113979C91891798F461
:100C50008F5F13968C93139711968C911197FD01CA
:100C6000E80FF11D64838F5F11968C93119789179C
:100C700011F411961C920895DC0113968C91139730
:100C8000882311F420E014C0815013968C9313979D
:100C900012968C911297FD01E80FF11D24818F5F50
:100CA00012968C9312979C91891711F412961C92AC
:100CB000822F0895AC012091590130915A01BC0155
:100CC00084E0769567958A95E1F78FE0413E580775
:100CD000C8F0F901E259FE4F8FEF8083C9010196F8
:100CE000FC01E259FE4F252F22952F70208301969B
:100CF000FC01E259FE4F6083019690935A01809364
:100D000059010895F901E259FE4F60832F5F3F4F6B
:100D100030935A0120935901089520915B0130913D
:100D20005C01F901E259FE4F80818F3F19F040E0EC
:100D300050E00FC0C9010196FC01E259FE4F20812D
:100D4000522F5295507F40E0019690935C01809322
:100D50005B0180915B0190915C01FC01E259FE4FC7
:100D6000208130E064E0220F331F6A95E1F7240F01
:100D7000351F019690935C0180935B01C901089532
:100D80001F920F920FB60F9211242F938F939F9360
:100D9000EF93FF9310926F00909156019F5F292F60
:100DA0002770915080915701281709F4292FE22FBD
:100DB000F0E0EE0FFF1FE25AFE4F80E395E79183CC
:100DC0008083209356011092550110924E01FF919D
:100DD000EF919F918F912F910F900FBE0F901F90C9
:100DE00018951F920F920FB60F9211242F933F93D5
:100DF0008F939F93EF93FF93809184009091850050
:100E000090935401809353011092850010928400B6
:100E100080915501813051F5209156012F5F322F7D
:100E20003770215080915701381739F48FEF9FE7C1
:100E30009093540180935301322F379909C08091C8
:100E40005301909154019068909354018093530101
:100E5000E32FF0E0EE0FFF1FE25AFE4F80915301A7
:100E600090915401918380833093560181E0809367
:100E7000550180934E01FF91EF919F918F913F918A
:100E80002F910F900FBE0F901F90189547DB81E0B8
:100E900080935D017CCA86E392DA89E390DA10924E
:100EA0005D0108953E9A46983F9880916A0081605E
:100EB00080936A0010925D018091AA02882311F04C
:100EC000E5DF01C0E8DF8091AA02833009F4EC98E5
:100ED000089510925A01109259018FE6C5DC809155
:100EE000590190915A0164E040E3FACCE091570136
:100EF00080915601E81709F43AC0EF5FE770E0937C
:100F00005701F0E0EE0FFF1FE25AFE4F8081918102
:100F100097FF0DC08DE6A8DC80E395E790938900EC
:100F20008093880082E080936F0086BB02C083E7D5
:100F30009BDC10925801E0915701F0E0EE0FFF1F8B
:100F4000E25AFE4F818190E08F77907062E040E33B
:100F5000C7DCE0915701F0E0EE0FFF1FE25AFE4FB1
:100F600080819181907062E040E3BADC9CCC08956E
:100F7000A1E0B0E0EDEBF7E0C9C56C01809159014B
:100F800090915A01883C910518F085E66DDC31C0DE
:100F9000C60101967E010894E11CF11CB70141E0F5
:100FA0001FDD198100E0C6010396B70141E018DD9D
:100FB00089819801280F311DC9017CDEC601059683
:100FC000B70141E00DDD198100E0C6010796B701C8
:100FD00041E006DD89819801280F311DC9016ADED3
:100FE0008FE642DC8091590190915A0164E040E320
:100FF00077DC59DC2196E8E0A5C5FC0181818823D6
:1010000039F48091AA0290E062E040E369DC4BCCC5
:10101000CF0101966AEA72E041E0E2DC43CFA2E050
:10102000B0E0E4E1F8E076C58C0119820196BE01DA
:101030006F5F7F4F41E0D4DCC8010396BE016E5F55
:101040007F4F41E0CDDC89816A8192D98FE60CDC4B
:101050002296E4E07BC5A1E0B0E0E0E3F8E05BC508
:1010600019820196BE016F5F7F4F41E0B9DC898133
:1010700071D9182F8FE6F8DB812F90E062E040E312
:101080002FDC2196E3E063C5A4E0B0E0E9E4F8E0FA
:101090003CC58C01198210925C0110925B011A828E
:1010A0001B821C820196BE016F5F7F4F41E098DC7E
:1010B000F80183818823C9F0C8010396BE016E5FE1
:1010C0007F4F41E08DDCC8010596BE016D5F7F4F0B
:1010D00041E086DCF8018781882339F0C801079652
:1010E000BE016C5F7F4F41E07BDC449A1E990CC0CF
:1010F0008FE090E060E1A5DC80E190E060EBA1DCB6
:1011000081E190E061E70BC08FE090E061E299DC63
:1011100080E190E065E695DC81E190E068EE91DCAD
:1011200080915D01882371F43E9A46983F988091A2
:101130006A00816080936A0010925D01EFD981E0BE
:1011400080935D0186E33BD981E090E083DB84D925
:101150008A81882321F4DD2420E030E07AC0BB249A
:1011600020E030E04BC030935C0120935B01CC2445
:10117000DD2437C0BB2029F48C8190E0C816D90645
:1011800009F079011092850010928400C6DD9C015F
:101190005A814B8108C0469A852F8A95F1F7469867
:1011A000842F8A95F1F780918400909185008217B1
:1011B000930788F310928500109284004698ADDD65
:1011C0008C0103C082E090E040DB8091840090912C
:1011D000850080179107B0F382E090E0C80ED91E19
:1011E0009701E0905B01F0905C0180915901909132
:1011F0005A01E816F90608F4BDCFB3948981B816F0
:1012000008F4B1CF29C030935C0120935B01EE2438
:10121000FF2413C0DD2029F48C8190E0E816F90644
:1012200009F08901469A79DD10DB469876DD0DDB01
:10123000E2E0F0E0EE0EFF1E980100915B011091DC
:101240005C018091590190915A010817190710F318
:10125000D3948981D816B8F28091AA02882339F0F4
:1012600096D88091AA02833021F4EC9802C086E3DC
:10127000A6D844988FE6F8DA80915B0190915C01E2
:1012800064E040E32DDB0FDB2496E9E05AC4DC0187
:1012900020E013C08C918E1779F4822F90E063E0E8
:1012A00070E004D4FC01E05FFE4F0180F281E02D8C
:1012B000CD01099581E008952F5F822F90E063E0D2
:1012C00070E0F4D3FC01E05FFE4FE081EE2311F704
:1012D00080E0089581E799E090937D0280937C02FD
:1012E00008951F93CF93DF93C0914901D0914A0194
:1012F0003FC0CE01C1DC8A3011F08D3069F5E0913C
:101300003602EE23A9F1F0E0E95CFD4F108287E39D
:1013100092E0BDDF8823E9F48FE3A6DA10E00DC088
:1013200080E2A2DA812F90E063E070E0BFD3FC019D
:10133000E05FFE4F808198DA1F5F812F90E063E0CD
:1013400070E0B4D3FC01E05FFE4F8081882341F759
:10135000AADA109236020CC090913602903240F414
:10136000E92FF0E0E95CFD4F80839F5F90933602A8
:101370008B81882309F0BDCFDF91CF911F91089514
:10138000E4E6F0E080818B7F8083299A84B18760D6
:1013900084B9239880E58CBD8DB581608DBD08959D
:1013A0009C01E0E0F1E008C0808191818217930701
:1013B00011F46283089534968091AB0290E0880F17
:1013C000991F880F991F80509F4FE817F90761F701
:1013D0000895A4E0B0E0EEEEF9E09EC3CDD2CFD206
:1013E0001092B2021092B0021092AF021092AE02AE
:1013F00019BC89B5826089BD09B400FEFDCF80911A
:10140000D800982F9F779093D80080688093D80059
:10141000809163008E7F809363008091D8008F7DE0
:101420008093D80080E091E060E0AE014F5F5F4FB5
:101430009E012D5F3F4F0E946301882331F0E981B7
:10144000FA813796E491E0934C018091E0008E7F21
:101450008093E0008091E20081608093E2008091BF
:10146000E20088608093E2002496E2E071C38091FC
:10147000B202882311F00E9457017ED280D21092CE
:10148000B2021092B1021092B0028091D8008F7710
:101490008093D80019BC08958091B102882309F087
:1014A000E6DF81E08093B10294DF78940895809321
:1014B000E9008091EB0081608093EB004093EC00A9
:1014C0009091ED0077706930710510F480E00BC0E9
:1014D0006131710510F480E106C06132710510F0D0
:1014E00080E301C080E29270922B892B8093ED0003
:1014F0008091ED0082608093ED0008951F939C0120
:10150000FB0110914C01CB01612F70E0E1D2892BDE
:1015100021F040E050E0309711F441E050E0D90173
:1015200013C08091E80080FFFCCF05C08D918093AF
:10153000F100319721F08091F2008117B8F380918A
:10154000E8008E7F8093E800309721F08091E800DA
:1015500082FFE7CF8091E80082FF02C081E010C0E7
:10156000452B49F08091E80080FFFCCF8091E80096
:101570008E7F8093E8008091E80082FFFCCF80E0BE
:101580001F910895FC0114C08091E80082FFFCCFF8
:1015900006C08091F10081936150704021F08091EC
:1015A000F2008823B1F78091E8008B7F8093E800F8
:1015B0006115710549F78091E80080FFFCCF80E05C
:1015C0000895A8E0B0E0E6EEFAE0A3C26091F10071
:1015D0004091F100453009F4CCC0463048F4413028
:1015E00009F475C0413070F0433009F09EC16FC0FE
:1015F000483009F44AC1493009F462C1463009F063
:1016000094C1D7C0262F30E0C901807E9070803809
:10161000910509F08AC1C9018F71907083309105DD
:1016200009F483C12091F1002091F1002091F10093
:101630004091F1008130910531F08230910501F146
:10164000892B21F075C120E030E02EC08091B002DE
:1016500090E0926060E0AE014F5F5F4F9E01295FB6
:101660003F4F0E946301882309F462C18091AE025A
:10167000282F30E08091AF028823B1F0226014C09F
:10168000942F80E030E0822B932B8093E9008091AF
:10169000EB00282F30E085E0369527958A95E1F715
:1016A000217030701092E9008091E800877F80936C
:1016B000E8002093F1003093F1008091E8008E7FE4
:1016C0008093E8008091E80082FFFCCFF3C0262FD2
:1016D00030E0862F807E09F028C1C9018F7190709B
:1016E0008330910509F421C12091F1005091F1005E
:1016F0007091F1006091F100029709F019C1952FE6
:1017000080E030E0822B932B892B09F011C180E01F
:10171000272F282B277009F40BC12093E900809113
:10172000EB0080FF1BC04130A1F48091EB00806191
:101730008093EB0081E090E002C0880F991F2A950A
:10174000E2F78093EA001092EA008091EB00886053
:1017500003C08091EB0080628093EB001092E9005F
:101760008091E800877F8093E8008091E8008E7F79
:10177000A4C0662309F0D9C09091F1008091E300E4
:101780009F778078982B9093E3008091E800877F83
:101790008093E8008091E8008E7F8093E80080913C
:1017A000E80080FFFCCF8091E30080688093E30035
:1017B000BFC04091F1006091F1002091F100E091F3
:1017C000F1000091F1001091F100962F80E050E0BF
:1017D0007E2F60E030E0622B732B842B952BAE01C3
:1017E0004D5F5F4F9E01295F3F4F0E946301882339
:1017F00009F49EC08091E800877F8093E800912FD4
:1018000080E0402F50E02F813885482B592B24173A
:10181000350708F4A90160914C01AB81BC819A01A4
:1018200016C08091E80080FFFCCF08C0FD01119632
:10183000E491E093F1002150304021F08091F200DA
:101840008617A0F38091E8008E7F8093E800211531
:10185000310521F08091E80082FFE3CF8091E8001C
:1018600082FD28C0CA0170E033D1892B49F48091F0
:10187000E80080FFFCCF8091E8008E7F8093E80035
:101880008091E80082FFFCCF15C0603809F04DC0A0
:101890008091E800877F8093E8008091B002809378
:1018A000F1008091E8008E7F8093E8008091E8004D
:1018B00082FFFCCF8091E8008B7F8093E80038C0E6
:1018C000662399F50091F1001091F100F090B002BB
:1018D00080E091E0AE014B5F5F4F9E01295F3F4F7B
:1018E0000E946301882321F1912F80E0202F30E0B6
:1018F000282B392BED81FE817196E4918E2F90E09B
:1019000082179307A8F08091E800877F8093E80012
:101910002093B0028091E8008E7F8093E800FF2042
:1019200009F4C3D00E94850303C0842F0E944F0393
:101930008091E80083FF0AC08091EB008062809371
:10194000EB008091E800877F8093E8002896E5E02F
:10195000FCC01F938091B202882361F01091E900CE
:101960001092E9008091E80083FF01C02ADE177021
:101970001093E9001F9108951092E20008951092CB
:10198000E10008951F920F920FB60F9211242F932A
:101990003F934F935F936F937F938F939F93AF93F7
:1019A000BF93EF93FF938091E10080FF1EC0809171
:1019B000E20080FF1AC08091E1008E7F8093E100F9
:1019C0008091E2008E7F8093E2008091E20080614E
:1019D0008093E2008091D80080628093D80019BC87
:1019E00064D01092B2020E9457018091E10084FFFE
:1019F00025C08091E20084FF21C019BC89B58260B6
:101A000089BD09B400FEFDCF8091D8008F7D809301
:101A1000D8008091E1008F7E8093E1008091E20008
:101A20008F7E8093E2008091E20081608093E200EB
:101A300081E08093B2020E94520137D08091E10090
:101A400083FF22C08091E20083FF1EC08091E100ED
:101A5000877F8093E1001092B0028091E1008E7F39
:101A60008093E1008091E2008E7F8093E20080917C
:101A7000E20080618093E20060914C0180E070E0C0
:101A800040E020E014DD11D0FF91EF91BF91AF91C4
:101A90009F918F917F916F915F914F913F912F9186
:101AA0000F900FBE0F901F90189508955527002492
:101AB00080FF02C0060E571F660F771F6115710564
:101AC00021F096958795009799F7952F802D089589
:101AD000AA1BBB1B51E107C0AA1FBB1FA617B70754
:101AE00010F0A61BB70B881F991F5A95A9F7809570
:101AF0009095BC01CD0108952F923F924F925F9235
:101B00006F927F928F929F92AF92BF92CF92DF920D
:101B1000EF92FF920F931F93CF93DF93CDB7DEB772
:101B2000CA1BDB0B0FB6F894DEBF0FBECDBF099406
:101B30002A88398848885F846E847D848C849B845D
:101B4000AA84B984C884DF80EE80FD800C811B816B
:101B5000AA81B981CE0FD11D0FB6F894DEBF0FBE9A
:0A1B6000CDBFED010895F894FFCF0A
:101B6A00A90C0000FD02000076070100D003010065
:101B7A0041B80742970543E701456907492B084FD2
:101B8A000F0852DC05534408563605574E0558FDD2
:101B9A000765B0056C3F0574060478E8020000008A
:0E1BAA0000E803000000087E02580202080056
:00000001FF
